:020000040000FA
:100000000C9460000C9488000C9488000C94880078
:100010000C9488000C9488000C9488000C94880040
:100020000C9488000C9488000C9488000C94880030
:100030000C9488000C9488000C9488000C94880020
:100040000C942B040C9488000C94F9030C94D303A7
:100050000C9488000C9488000C9488000C94880000
:100060000C9488000C9488000000000025002800F3
:100070002B0000000008000201000003040700003C
:1000800000000000000000000000240027002A00FB
:10009000010204081020408001020408102001021F
:1000A00004081020040404040404040402020202EC
:1000B00002020303030303030001020304057504A2
:1000C00011241FBECFEFD8E0DEBFCDBF21E0A6E2F6
:1000D000B1E001C01D92A53FB207E1F711E0A0E039
:1000E000B1E0E8EBF3E102C005900D92A632B10752
:1000F000D9F710E0C0E6D0E004C02197FE010E94CD
:10010000D307CF35D107C9F70E94BB040C94DA0995
:100110000C940000AF92BF92CF92DF92EF92FF92C9
:100120000F931F93CF93DF936C017B018B01040F1F
:10013000151FEB015E01AE18BF08C017D10759F0BB
:100140006991D601ED91FC910190F081E02DC601FD
:100150000995892B79F7C501DF91CF911F910F91F7
:10016000FF90EF90DF90CF90BF90AF900895FC018B
:10017000538D448D252F30E0842F90E0821B930B0C
:10018000541710F0CF96089501970895FC01918DB2
:10019000828D981761F0A28DAE0FBF2FB11D5D96B5
:1001A0008C91928D9F5F9F73928F90E008958FEF57
:1001B0009FEF0895FC01918D828D981731F0828D0B
:1001C000E80FF11D858D90E008958FEF9FEF089562
:1001D000FC01918D228D892F90E0805C9F4F821BC6
:1001E00091098F73992708958CE391E00E94E800AC
:1001F00021E0892B09F420E0822F089580E090E02F
:10020000892B29F00E94F40081110C9400000895BC
:10021000FC01A48DA80FB92FB11DA35ABF4F2C917B
:10022000848D90E001968F739927848FA689B78972
:100230002C93A089B1898C91837080648C93938D69
:10024000848D981306C00288F389E02D80818F7D0C
:1002500080830895EF92FF920F931F93CF93DF93C4
:10026000EC0181E0888F9B8D8C8D98131AC0E889F2
:10027000F989808185FF15C09FB7F894EE89FF89C1
:100280006083E889F98980818370806480839FBF5F
:1002900081E090E0DF91CF911F910F91FF90EF905F
:1002A0000895F62E0B8D10E00F5F1F4F0F7311276F
:1002B000E02E8C8D8E110CC00FB607FCFACFE889AA
:1002C000F989808185FFF5CFCE010E940801F1CF29
:1002D000EB8DEC0FFD2FF11DE35AFF4FF0829FB71E
:1002E000F8940B8FEA89FB8980818062CFCFCF930E
:1002F000DF93EC01888D8823B9F0AA89BB89E8894E
:10030000F9898C9185FD03C0808186FD0DC00FB6F3
:1003100007FCF7CF8C9185FFF2CF808185FFEDCF71
:10032000CE010E940801E9CFDF91CF91089590E0BE
:10033000FC01EE58FF4F2491FC01E057FF4F349130
:10034000FC01EC55FF4FE491EE23C9F0222339F074
:10035000233001F1A8F4213019F1223029F1F0E025
:10036000EE0FFF1FE859FF4FA591B4918FB7F89496
:10037000EC91611126C030953E233C938FBF0895C8
:100380002730A9F02830C9F0243049F78091800047
:100390008F7D03C0809180008F7780938000DFCFB6
:1003A00084B58F7784BDDBCF84B58F7DFBCF809103
:1003B000B0008F778093B000D2CF8091B0008F7D56
:1003C000F9CF3E2BDACF2091D9013091DA0140915B
:1003D000DB015091DC012417350721F0682F822FB3
:1003E0000C9497010895CF93DF9390E0FC01E057C0
:1003F000FF4F24918C559F4FFC0184918823D1F0AD
:1004000090E0880F991FFC01EA57FF4FA591B49126
:10041000FC01E859FF4FC591D49161110EC09FB7FF
:10042000F8948C91E22FE0958E238C932881E2231F
:10043000E8839FBFDF91CF9108958FB7F894EC9137
:10044000E22BEC938FBFF6CF8E3008F08E50877082
:10045000806480937C0080917A00806480937A002D
:1004600080917A0086FDFCCF809178009091790090
:1004700008958230910538F0880F991F880F991FD1
:1004800005970197F1F70895CF93DF939CB59F7D72
:100490009CBD9CB5937F9CBD9CB59C7F9CBD9DB530
:1004A00091609DBDC9EDD1E0682F8A810E949701BE
:1004B0008C899D89DF91CF910C9439023FB7F894D4
:1004C0008091270190912801A0912901B0912A01E2
:1004D00026B5A89B05C02F3F19F00196A11DB11D9F
:1004E0003FBFBA2FA92F982F8827BC01CD01620FDB
:1004F000711D811D911D42E0660F771F881F991F96
:100500004A95D1F708958F929F92AF92BF92CF9262
:10051000DF92EF92FF924B015C010E945E026B0141
:100520007C010E945E026C197D098E099F09683E5C
:10053000734081059105A8F321E0821A9108A10872
:10054000B10888EEC80E83E0D81EE11CF11C8114AE
:100550009104A104B10429F7FF90EF90DF90CF90B0
:10056000BF90AF909F908F9008958EBD00000DB406
:1005700007FEFDCF8EB50895CF93DF93C82FD62FFA
:1005800080E00E9444028C2F80620E94B502C82F36
:100590008D2F0E94B50281E00E9444028C2FDF91D2
:1005A000CF910895CF93C82F80E00E9444028C2FF2
:1005B0000E94B5028FEF0E94B502C82F81E00E9411
:1005C00044028C2FCF910895CF93C82F80E00E94D2
:1005D00044028C2F0E94B502C82F81E00E94440281
:1005E0008C2FCF9108950F931F93CF93DF93D82F24
:1005F000C62F80E00E9444028D2F80620E94B502C7
:10060000D82F06E011E0C15030F0F80181918F0140
:100610000E94B502F8CF81E00E9444028D2FDF9145
:10062000CF911F910F910895FC01808191810097D6
:1006300011F00C94750808950F931F93CF93DF93D7
:10064000EC0188819981009759F02A813B81261716
:10065000370730F081E0DF91CF911F910F9108951E
:100660008B016F5F7F4F0E94FE08009759F09983BE
:1006700088831B830A832C813D81232B59F7FC013E
:100680001082E8CF80E0E7CFEF92FF920F931F93A5
:10069000CF93DF936115710541F480E0DF91CF9135
:1006A0001F910F91FF90EF90089541155105B1F002
:1006B0007B01EC010C811D81040F151FB8010E9404
:1006C0001C03882351F3288139818C819D81B701D6
:1006D000820F931F0E94C4091D830C8381E0DECF2B
:1006E000EF92FF920F931F93CF93DF93EC017B0167
:1006F0008A01BA010E941C0328813981811114C02A
:100700002115310519F0C9010E9475081982188256
:100710001D821C821B821A82CE01DF91CF911F9114
:100720000F91FF90EF9008951D830C83B701C901CD
:100730000E94C409F1CFEF92FF920F931F93CF93C2
:10074000DF93CDB7DEB762970FB6F894DEBF0FBE6A
:10075000CDBF8C01CB01F80111821082138212826D
:10076000158214824AE09E012F5F3F4F7901B90143
:100770000E946707F70101900020E9F73197AF0168
:100780004E195F09B701C8010E94700362960FB647
:10079000F894DEBF0FBECDBFDF91CF911F910F91B7
:1007A000FF90EF9008951F920F920FB60F921124B1
:1007B0002F933F934F935F936F937F938F939F9369
:1007C000AF93BF93EF93FF938CE391E00E940801F6
:1007D000FF91EF91BF91AF919F918F917F916F9119
:1007E0005F914F913F912F910F900FBE0F901F90EF
:1007F00018951F920F920FB60F9211242F938F937B
:100800009F93EF93FF93E0914C01F0914D01808114
:10081000E0915201F091530182FD1BC090818091C3
:1008200055018F5F8F7320915601821741F0E0913F
:100830005501F0E0E45CFE4F958F80935501FF91E8
:10084000EF919F918F912F910F900FBE0F901F905E
:1008500018958081F4CF1F920F920FB60F9211243A
:100860002F933F938F939F93AF93BF9380912C01CE
:1008700090912D01A0912E01B0912F013091260170
:1008800023E0230F2D3758F50196A11DB11D2093AC
:10089000260180932C0190932D01A0932E01B093FB
:1008A0002F018091270190912801A0912901B091F9
:1008B0002A010196A11DB11D809327019093280163
:1008C000A0932901B0932A01BF91AF919F918F917D
:1008D0003F912F910F900FBE0F901F90189526E813
:1008E000230F0296A11DB11DD2CFECE3F1E01382DC
:1008F000128288EE93E0A0E0B0E084839583A68323
:10090000B78380E191E09183808385EC90E09587C7
:10091000848784EC90E09787868780EC90E0918BC9
:10092000808B81EC90E0938B828B82EC90E0958BB6
:10093000848B86EC90E0978B868B118E128E138EB3
:10094000148EE9EDF1E087E090E09183808388E008
:1009500090E093838283168280E28783108685E00D
:10096000868785E090E0A0E0B0E0848B958BA68B35
:10097000B78B11860895CF93DF93CDB7DEB7689715
:100980000FB6F894DEBF0FBECDBF789484B58260F9
:1009900084BD84B5816084BD85B5826085BD85B523
:1009A000816085BD80916E00816080936E001092A1
:1009B000810080918100826080938100809181001C
:1009C00081608093810080918000816080938000AD
:1009D0008091B10084608093B1008091B00081600B
:1009E0008093B00080917A00846080937A00809137
:1009F0007A00826080937A0080917A00816080938F
:100A00007A0080917A00806880937A001092C10009
:100A100060E08EE00E94F30160E08FE00E94F3014D
:100A2000E0914C01F0914D0182E08083E09148011A
:100A3000F09149011082E0914A01F0914B018FEC55
:100A4000808310925401E0915001F091510186E0B1
:100A50008083E0914E01F0914F018081806180831D
:100A6000E0914E01F0914F01808188608083E09198
:100A70004E01F0914F01808180688083E0914E01AA
:100A8000F0914F0180818F7D80838091D901909179
:100A9000DA012091DB013091DC018217930719F014
:100AA00061E00E94F3018091DB019091DC012091D3
:100AB000D9013091DA012817390719F061E00E9455
:100AC000F3011FB7F89480912B01811127C0EEEA42
:100AD000F0E08491EAE9F0E09491E82FF0E0EE0F85
:100AE000FF1FEA57FF4FA591B491EC91E92321F440
:100AF00061E08AE00E94970161E08AE00E94F301D0
:100B00008CB580618CBD8CB580648CBD61E08DE05E
:100B10000E94F30161E08BE00E94F30180912B01C0
:100B20008F5F80932B011FBF80E00E94E30181E073
:100B30000E94440265E070E080E090E00E94830241
:100B40006CE080E00E94BC026FE584E00E94BC0281
:100B500086E00E94D202877D182F10628BE990E018
:100B6000A0E0B0E08093E9019093EA01A093EB014B
:100B7000B093EC01612F86E00E94BC0286E00E94E7
:100B8000D202181303C081E08093DF0186E00E9447
:100B9000D20286E00E94D20245E550E060E070E0BB
:100BA0004093E9015093EA016093EB017093EC01EB
:100BB000682F677D86E00E94BC0286E00E94D20218
:100BC00080E00E94440280E50E94B50283E70E9413
:100BD000B50281E00E94440260E08DE10E94BC0207
:100BE00060E08CE10E94BC021092E10160E787E0C6
:100BF0000E94BC026CE485E00E94BC0282EE0E946E
:100C0000E40281EE0E94E40280E00E94D20281FDB3
:100C10000BC0682F626080E00E94BC0265E070E05B
:100C200080E090E00E94830280E00E94D202682F60
:100C30006E7F80E00E94BC026091E7018AE00E9422
:100C4000F3026091E70180E10E94F3026091E0010C
:100C500081E10E94BC0286E00E94D202682F676098
:100C600086E00E94BC0280E00E94E3018091E901DD
:100C70009091EA010E9439028DE10E94D20281FF27
:100C800009C08091E9019091EA010E94390281EE48
:100C90000E94E40280E00E94D202682F6E7F80E012
:100CA0000E94BC0282E00E94D202E8EBF0E0E491F4
:100CB00061E070E001C0660FEA95EAF7682B82E018
:100CC0000E94BC0290E0E92E90E0F92E8EE00E9496
:100CD00024025C018FE00E9424028C01B501CE0148
:100CE00043960E949B0341E050E06EE171E0CE012B
:100CF00043960E944403B801CE010D960E949B03C7
:100D000041E050E060E271E0CE010D960E944403A4
:100D10001A8219821C821B821E821D826B897C8929
:100D20006115710531F04F89588DCE0101960E94F1
:100D3000700349895A896D857E85CE0101960E948E
:100D4000440381110CC089819A81009711F00E949F
:100D500075081A8219821E821D821C821B821886C7
:100D60001F821A8619861C861B8669817A81611505
:100D7000710531F04D815E81CE0107960E947003AE
:100D8000CE0101960E9414034B855C856F817885A6
:100D90008CE391E00E948A0042E050E062E271E060
:100DA0008CE391E00E948A000B851C8501151105DA
:100DB000F9F4109230011091E001012F1D3008F07C
:100DC0000CE08091E101101B811110E080E00E9495
:100DD000440280EA0E94B50280E3A82E81E0B82E8A
:100DE0000150B8F0F50181915F010E94B502F8CF82
:100DF0000B30110510F00BE010E06F817885A80131
:100E000080E391E00E94CB09F801E05DFE4F108283
:100E1000D2CF115020F080E00E94B502FACF81E0DD
:100E20000E94440281E00E94E3018FB7F894809011
:100E30002C0190902D01A0902E01B0902F018FBF1A
:100E40008FEF0E94E4028073A9F52FB7F894809188
:100E50002C0190912D01A0912E01B0912F012FBF57
:100E600088199909AA09BB0980369105A105B10520
:100E700038F381E08093E80164E670E080E090E080
:100E80000E948302CE0107960E941403CE010D96A4
:100E90000E941403CE0143960E941403E114F1044E
:100EA00009F414CF0E94F400882309F40FCF0E94A4
:100EB00000000CCF80E00E94E30160E787E00E9421
:100EC000BC0284FFD9CF81EE0E94E402D5CFBB27BC
:100ED0004A3031F4992322F4BDE2909581959F4FD9
:100EE0000C947307BB27FB015527AA27880F991F6E
:100EF000AA1FA41710F0A41B83955051B9F7A05D49
:100F0000AA3308F0A95DA193009779F7B111B193C5
:100F10001192CB010C948C07DC01FC01672F7191BD
:100F20007723E1F7329704C07C916D9370836291CF
:100F3000AE17BF07C8F308952F923F924F925F926A
:100F40006F927F928F929F92AF92BF92CF92DF92D9
:100F5000EF92FF920F931F93CF93DF93CDB7DEB73E
:100F6000CA1BDB0B0FB6F894DEBF0FBECDBF0994D2
:100F70002A88398848885F846E847D848C849B8429
:100F8000AA84B984C884DF80EE80FD800C811B8137
:100F9000AA81B981CE0FD11D0FB6F894DEBF0FBE66
:100FA000CDBFED010895EE0FFF1F0590F491E02DE8
:100FB00009940F931F93CF93DF938230910510F420
:100FC00082E090E0E091F301F091F40130E020E064
:100FD000B0E0A0E0309799F42115310509F44AC03A
:100FE000281B390B24303105D8F58A819B81611586
:100FF000710589F1FB0193838283FE0111C0408159
:1010000051810281138148175907E0F048175907A9
:1010100099F4109761F012960C93129713961C9303
:101020003296CF01DF91CF911F910F9108950093D8
:10103000F3011093F401F4CF2115310551F042175B
:10104000530738F0A901DB019A01BD01DF01F80166
:10105000C1CFEF01F9CF9093F4018093F301CDCF8D
:10106000FE01E20FF31F81939193225031093983DE
:101070002883D7CF2091F1013091F201232B41F445
:1010800020910201309103013093F2012093F1018C
:1010900020910001309101012115310541F42DB756
:1010A0003EB74091040150910501241B350BE0919E
:1010B000F101F091F201E217F307A0F42E1B3F0BB0
:1010C0002817390778F0AC014E5F5F4F24173507BA
:1010D00048F04E0F5F1F5093F2014093F10181934E
:1010E00091939FCFF0E0E0E09CCFCF93DF93009708
:1010F000E9F0FC01329713821282A091F301B091C2
:10110000F401ED0130E020E01097A1F4208131815D
:10111000820F931F2091F1013091F20128173907B6
:1011200009F061C0F093F201E093F101DF91CF91FA
:101130000895EA01CE17DF07E8F54A815B819E0139
:1011400041155105B1F7E901FB83EA8349915991B2
:10115000C40FD51FEC17FD0761F4808191810296C1
:10116000840F951FE90199838883828193819B83F2
:101170008A83F0E0E0E012968D919C91139700979E
:10118000B9F52D913C911197CD010296820F931FD5
:101190002091F1013091F2012817390739F6309783
:1011A00051F51092F4011092F301B093F201A09363
:1011B000F101BCCFD383C28340815181840F951F3D
:1011C000C817D90761F44E5F5F4F88819981480F36
:1011D000591F518340838A819B8193838283211588
:1011E000310509F0B0CFF093F401E093F3019ECF05
:1011F000FD01DC01C0CF13821282D7CFB0E0A0E0A6
:10120000E4E0F9E00C949E078C01009751F4CB01C7
:101210000E94D9078C01C801CDB7DEB7E0E10C947C
:10122000BA07FC01E60FF71F9C0122503109E217B3
:10123000F30708F49DC0D901CD91DC911197C61731
:10124000D70798F0C530D10530F3CE010497861743
:10125000970708F3C61BD70B2297C193D1936D93C1
:101260007C93CF010E947508D6CF5B01AC1ABD0AF2
:101270004C018C0E9D1EA091F301B091F401512CF4
:10128000412CF12CE12C109731F58091F1019091D6
:10129000F2018815990509F05CC04616570608F05A
:1012A00058C08091000190910101009741F48DB7E1
:1012B0009EB74091040150910501841B950BE817DE
:1012C000F90708F055C0F093F201E093F101F9013C
:1012D00071836083A0CF8D919C91119712966C9031
:1012E000129713967C901397A815B90559F56C01C0
:1012F00042E0C40ED11CCA14DB0420F1AC014A192F
:101300005B09DA011296159780F06282738251832D
:101310004083D9016D937C93E114F10471F0D701FE
:101320001396FC93EE93129776CF22968C0F9D1F07
:10133000F90191838083F301EFCFF093F401E093FF
:10134000F30169CF4816590608F42C017D01D30139
:101350009ACFCB010E94D9077C01009749F0AE01DA
:10136000B8010E94BB09C8010E947508870153CFCC
:1013700010E000E050CFFB01DC0102C001900D92B3
:1013800041505040D8F70895FB01DC0101900D92C7
:101390000020E1F70895FB01DC014150504048F086
:1013A00001900D920020C9F701C01D92415050409C
:1013B000E0F70895F894FFCF0000F5018000303089
:1013C00030303100000000002A018A00B7007701A8
:0E13D000E800C600DA0053004D000D0A0000D0
:107800000C94343C0C94513C0C94513C0C94513CE1
:107810000C94513C0C94513C0C94513C0C94513CB4
:107820000C94513C0C94513C0C94513C0C94513CA4
:107830000C94513C0C94513C0C94513C0C94513C94
:107840000C94513C0C94513C0C94513C0C94513C84
:107850000C94513C0C94513C0C94513C0C94513C74
:107860000C94513C0C94513C11241FBECFEFD8E036
:10787000DEBFCDBF11E0A0E0B1E0ECE9FFE702C060
:1078800005900D92A230B107D9F712E0A2E0B1E065
:1078900001C01D92AD30B107E1F70E942D3D0C945F
:1078A000CC3F0C94003C982F959595959595959582
:1078B000905D8F708A307CF0282F295A8091C0000B
:1078C00085FFFCCF9093C6008091C00085FFFCCF60
:1078D0002093C6000895282F205DF0CF982F809127
:1078E000C00085FFFCCF9093C6000895EF92FF92F1
:1078F0000F931F93EE24FF2487018091C00087FD22
:1079000017C00894E11CF11C011D111D81E4E8164B
:1079100082E4F8068FE0080780E0180770F3E09132
:107920000401F091050109958091C00087FFE9CF1E
:107930008091C6001F910F91FF90EF9008950E94D3
:10794000763C982F8091C00085FFFCCF9093C600B5
:1079500091362CF490330CF09053892F089597555D
:10796000892F08951F930E949F3C182F0E949F3CCF
:107970001295107F810F1F9108951F93182F882350
:1079800021F00E94763C1150E1F71F9108951F935A
:10799000182F0E94763C803249F0809103018F5F5E
:1079A000809303018530C1F01F9108958091C0003C
:1079B00085FFFCCF84E18093C6008091C00085FFE5
:1079C000FCCF1093C6008091C00085FFFCCF80E102
:1079D0008093C6001F910895E0910401F091050184
:1079E00009951F9108950E94763C803241F0809164
:1079F00003018F5F80930301853081F008958091AA
:107A0000C00085FFFCCF84E18093C6008091C00058
:107A100085FFFCCF80E18093C6000895E0910401CA
:107A2000F09105010995089540E951E08823A1F0FE
:107A30002D9A28EE33E0FA013197F1F721503040CA
:107A4000D1F72D9828EE33E0FA013197F1F7215064
:107A50003040D1F7815061F708953F924F925F9285
:107A60006F927F928F929F92AF92BF92CF92DF924E
:107A7000EF92FF920F931F93CF93DF93000080E16B
:107A80008093C4001092C50088E18093C10086E015
:107A90008093C2005098589A259A81E00E94143D24
:107AA00024E1F22E9EE1E92E85E9D82E0FE0C02ECA
:107AB00010E1B12EAA24A394B1E49B2EA6E58A2E50
:107AC000F2E57F2EE0E26E2E79E4572E63E5462E36
:107AD00050E5352E0E94763C8033B1F18133B9F107
:107AE000803409F46FC0813409F476C0823409F41B
:107AF00085C0853409F488C0803531F1823521F1A3
:107B0000813511F1853509F485C0863509F48DC0BC
:107B1000843609F496C0843709F403C1853709F423
:107B200072C1863709F466C0809103018F5F80932C
:107B30000301853079F6E0910401F0910501099582
:107B40000E94763C803351F60E94F33CC3CF0E94E2
:107B5000763C803249F78091C00085FFFCCFF092DF
:107B6000C6008091C00085FFFCCF9092C600809136
:107B7000C00085FFFCCF8092C6008091C00085FFC9
:107B8000FCCF7092C6008091C00085FFFCCF609250
:107B9000C6008091C00085FFFCCF5092C600809146
:107BA000C00085FFFCCF4092C6008091C00085FFD9
:107BB000FCCF3092C6008091C00085FFFCCFB09210
:107BC000C60088CF0E94763C863808F4BDCF0E945C
:107BD000763C0E94F33C7ECF0E94763C803809F4CC
:107BE0009CC0813809F40BC1823809F43CC1883942
:107BF00009F48FC080E00E94C73C6CCF84E10E94F2
:107C0000BD3C0E94F33C66CF85E00E94BD3C0E94D3
:107C1000F33C60CF0E94763C809306010E94763C44
:107C2000809307010E94F33C55CF0E94763C80333D
:107C300009F41DC183E00E94BD3C80E00E94C73C66
:107C400049CF0E94763C809309020E94763C809343
:107C5000080280910C028E7F80930C020E94763C79
:107C6000853409F415C18091080290910902892B8D
:107C700089F000E010E00E94763CF801E85FFE4FDA
:107C800080830F5F1F4F80910802909109020817AF
:107C9000190788F30E94763C803209F045CF809125
:107CA0000C0280FF01C16091060170910701660F0F
:107CB000771F7093070160930601A0910802B091AD
:107CC00009021097C9F0E8E0F1E09B01AD014E0F09
:107CD0005F1FF999FECF32BD21BD819180BDFA9A17
:107CE000F99A2F5F3F4FE417F50799F76A0F7B1F4B
:107CF00070930701609306018091C00085FFFCCF5F
:107D0000F092C6008091C00085FFFCCFB092C60003
:107D1000E1CE83E00E94C73CDDCE82E00E94C73CFA
:107D2000D9CE0E94763C809309020E94763C8093D3
:107D300008028091060190910701880F991F909386
:107D40000701809306010E94763C853409F4A6C0A1
:107D500080910C028E7F80930C020E94763C8032D0
:107D600009F0B8CE8091C00085FFFCCFF092C6002C
:107D7000609108027091090261157105B9F140E046
:107D800050E080910C02A82FA170B82FB27011C0E2
:107D9000BB2309F45CC0E0910601F0910701319624
:107DA000F0930701E09306014F5F5F4F46175707B7
:107DB000E8F4AA2369F3F999FECF209106013091E6
:107DC000070132BD21BDF89A90B58091C00085FFB2
:107DD000FCCF9093C6002F5F3F4F30930701209355
:107DE00006014F5F5F4F4617570718F38091C00099
:107DF00085FDE5CE8091C00085FFF8CFE0CE81E023
:107E00000E94C73C67CE0E94763C803209F08CCE3F
:107E10008091C00085FFFCCFF092C6008091C00029
:107E200085FFFCCFE092C6008091C00085FFFCCFAB
:107E3000D092C6008091C00085FFFCCFC092C600E2
:107E40008091C00085FFFCCFB092C60043CEE09188
:107E50000601F091070194918091C00085FFFCCF4D
:107E60009093C6009CCF80E10E94C73C33CE0E9415
:107E7000763C0E94763C182F0E94763C112309F430
:107E800083C0113009F484C08FE00E94C73C22CE29
:107E900080910C02816080930C02E5CE80910C02EF
:107EA000816080930C0259CF809107018823880F4D
:107EB000880B8A2180930B02809106019091070123
:107EC000880F991F90930701809306018091080203
:107ED00080FF09C080910802909109020196909359
:107EE000090280930802F894F999FECF1127E091D6
:107EF0000601F0910701C8E0D1E08091080290915D
:107F00000902103091F40091570001700130D9F34B
:107F100003E000935700E89500915700017001308D
:107F2000D9F301E100935700E89509901990009169
:107F3000570001700130D9F301E000935700E89534
:107F40001395103498F011270091570001700130FB
:107F5000D9F305E000935700E895009157000170B0
:107F60000130D9F301E100935700E895329602976A
:107F700009F0C7CF103011F00296E5CF112480919F
:107F8000C00085FFB9CEBCCE8EE10E94C73CA2CD19
:0E7F900085E90E94C73C9ECDF894FFCF80008B
:00000001FF
